:100000000C9480000C94A8000C94A8000C94A800F8
:100010000C94A8000C94A8000C94A8000C94A800C0
:100020000C94A8000C94A8000C94A8000C94770AD7
:100030000C94A8000C94A8000C94A8000C94A800A0
:100040000C94D5090C94A8000C94450A0C941F0A32
:100050000C94A8000C94A8000C94A8000C94A80080
:100060000C94A8000C94A8004E414E494E49545996
:10007000494E46CDCCCC3D0AD7233C17B7D1387773
:10008000CC2B329595E6241FB14F0A000020410089
:1000900000C84200401C4620BCBE4CCA1B0E5AAED3
:1000A000C59D740000000023002600290000000008
:1000B0000800020100000304070000000000000027
:1000C0000000000000250028002B00000000002494
:1000D0000027002A000404040404040404020202A9
:1000E0000202020303030303030102040810204079
:1000F0008001020408102001020408102000980B5F
:1001000011241FBECFEFD8E0DEBFCDBF11E0A0E0CD
:10011000B1E0E8E3FEE202C005900D92A638B10717
:10012000D9F723E0A6E8B1E001C01D92AB32B207D7
:10013000E1F710E0C0E8D0E004C02197FE010E9482
:10014000F114CF37D107C9F70E94070C0C941A1786
:100150000C94000090E0FC01E751FF4F24918B527A
:100160009F4FFC018491882399F090E0880F991F9C
:10017000FC01E553FF4FA591B491FC01EF53FF4FF4
:10018000859194918FB7F894EC91E22BEC938FBF0B
:100190000895CF92DF92EF92FF921F93CF93DF9358
:1001A000EC01CC8CDD8CEE8CFF8C20E030E048E460
:1001B00053E4C701B6010E94AF1187FF1DC0F7FAD3
:1001C000F094F7F8F09420E030E0A901C701B601FF
:1001D0000E94AF11811120C01B821C821D821E82D1
:1001E000C88ED98EEA8EFB8EDF91CF911F91FF9042
:1001F000EF90DF90CF90089520E030E048E453EC9A
:10020000C701B6010E94AF1187FDDDCFC12CD12CF3
:1002100088E4E82E83ECF82EA701960160E074E2F2
:1002200084E799E40E94DD139F770E9456146B8344
:100230007C838D839E8311E020E030E0A901C7011B
:10024000B6010E94851418160CF010E01A83C8CF6E
:10025000833081F028F4813099F08230A9F008953C
:100260008730A9F08830C9F08430B1F480918000E3
:100270008F7D03C0809180008F77809380000895E8
:1002800084B58F7784BD089584B58F7DFBCF809131
:10029000B0008F778093B00008958091B0008F7D7B
:1002A000F9CFCF93DF93282F30E0F901E355FF4FCB
:1002B0008491F901E751FF4FD491F901EB52FF4FBF
:1002C000C491CC23A1F081110E942801EC2FF0E011
:1002D000EE0FFF1FED55FF4FA591B491EC91ED236B
:1002E00081E090E009F480E0DF91CF91089580E013
:1002F00090E0FACF1F93CF93DF93282F30E0F901DE
:10030000E355FF4F8491F901E751FF4FD491F90173
:10031000EB52FF4FC491CC23A9F0162F81110E94FC
:100320002801EC2FF0E0EE0FFF1FEF53FF4FA591D8
:10033000B4918FB7F894EC91111108C0D095DE23D9
:10034000DC938FBFDF91CF911F910895DE2BF8CF03
:10035000AF92BF92CF92DF92EF92FF920F931F93D3
:10036000CF93DF936C017B018B01040F151FEB0111
:100370005E01AE18BF08C017D10759F06991D601C8
:10038000ED91FC910190F081E02DC6010995892B3A
:1003900079F7C501DF91CF911F910F91FF90EF90F9
:1003A000DF90CF90BF90AF900895FC01538D448DA6
:1003B000252F30E0842F90E0821B930B541710F010
:1003C000CF96089501970895FC01918D828D98171D
:1003D00061F0A28DAE0FBF2FB11D5D968C91928DF5
:1003E0009F5F9F73928F90E008958FEF9FEF089526
:1003F0002FB7F8948091900190919101A091920172
:10040000B09193012FBF80939C0190939D01A09385
:100410009E01B0939F0184E991E00E94E40197FF5F
:1004200026C02FB7F8948091900190919101A091EE
:100430009201B09193012FBF40919C0150919D0179
:1004400060919E0170919F01841B950BA60BB70BC9
:10045000409198015091990160919A0170919B018E
:1004600084179507A607B707B0F28FEF9FEF08959F
:10047000FC01918D828D981731F0828DE80FF11D6E
:10048000858D90E008958FEF9FEF0895FC01918D89
:10049000228D892F90E0805C9F4F821B91098F7382
:1004A0009927089584E991E00E94460221E0892B72
:1004B00009F420E0822F089580E090E0892B29F054
:1004C0000E94520281110C9400000895FC01A48D39
:1004D000A80FB92FB11DA35ABF4F2C91848D90E066
:1004E00001968F739927848FA689B7892C93A08949
:1004F000B1898C91837080648C93938D848D9813D3
:1005000006C00288F389E02D80818F7D8083089565
:10051000EF92FF920F931F93CF93DF93EC0181E053
:10052000888F9B8D8C8D98131AC0E889F9898081FA
:1005300085FF15C09FB7F894EE89FF896083E8892D
:10054000F98980818370806480839FBF81E090E01F
:10055000DF91CF911F910F91FF90EF900895F62EAC
:100560000B8D10E00F5F1F4F0F731127E02E8C8D46
:100570008E110CC00FB607FCFACFE889F98980818B
:1005800085FFF5CFCE010E946602F1CFEB8DEC0F17
:10059000FD2FF11DE35AFF4FF0829FB7F8940B8FA8
:1005A000EA89FB8980818062CFCFCF93DF93EC0112
:1005B000888D8823B9F0AA89BB89E889F9898C914B
:1005C00085FD03C0808186FD0DC00FB607FCF7CF07
:1005D0008C9185FFF2CF808185FFEDCFCE010E9407
:1005E0006602E9CFDF91CF910895CF93DF93FC01AD
:1005F0002781222329F1EC0180850E94AA008985A8
:100600000E94AA008F81843011F0883099F48A8585
:100610000E94AA008B850E94AA008FA58F3F81F0BF
:100620000E94AA006EA581E068278FA5DF91CF9177
:100630000C947A01833011F0863079F78A85EBCFFC
:10064000DF91CF910895CF93DF93FC01278122237F
:10065000A1F0EC010190F081E02D0284F385E02D02
:1006600060E009958FA58F3F41F00E94AA006EA51A
:100670008FA5DF91CF910C947A01DF91CF910895EE
:10068000DC01ED91FC912285338547705527662763
:1006900077274150510961097109473051056105BA
:1006A000710560F4FA01E95AFC4F0C94F1146103EE
:1006B00063036503670369036B036D0361E0F9017D
:1006C000099465E0FCCF64E0FACF66E0F8CF62E021
:1006D000F6CF6AE0F4CF68E0F2CF69E0F0CFCF93D5
:1006E000DF93EC01CB01BA0126E030E040E050E0BE
:1006F0000E94D612623071058105910589F16CF472
:100700006115710581059105D1F061307105810593
:100710009105F9F0DF91CF9108956430710581055D
:10072000910561F124F1653071058105910591F71D
:10073000E881F9810284F385E02D66E006C0E88156
:10074000F9810284F385E02D64E0CE01DF91CF9141
:100750000994E881F9810284F385E02D65E0F5CF05
:10076000E881F9810284F385E02D61E0EECFE88134
:10077000F9810284F385E02D63E0E7CFE881F98118
:100780000284F385E02D62E0E0CFDC01ED91FC9185
:100790000284F385E02D4370552766277727423082
:1007A00051056105710571F0433051056105710511
:1007B00059F0413051056105710511F065E009946A
:1007C00066E0FDCF6AE0FBCF69E0F9CFCF93DF931E
:1007D000EC01CB01BA0123E030E040E050E00E94A0
:1007E000D612613071058105910599F0623071056D
:1007F00081059105A9F0672B682B692BC1F4E8816D
:10080000F9810284F385E02D64E0CE01DF91CF9180
:100810000994E881F9810284F385E02D61E0F5CF48
:10082000E881F9810284F385E02D62E0EECFDF916B
:10083000CF910895DC01ED91FC910284F385E02DC8
:1008400043705527662777274230510561057105AA
:1008500071F0433051056105710559F04130510582
:100860006105710511F062E0099463E0FDCF61E07C
:10087000FBCF60E0F9CFCF93DF93EC01E881F98102
:100880000284F385E02D8A8160E0811162E0CE016F
:100890000995E881F9810284F385E02D8A8161E080
:1008A000811163E0CE0109958CA59DA5823091054B
:1008B00038F0880F991F880F991F05970197F1F756
:1008C000E881F9810284F385E02D8A8160E081115D
:1008D00062E0CE01DF91CF910994CF93DF93EC01D9
:1008E00020E030E0A901688D798D8A8D9B8D0E9472
:1008F000851418162CF4E8A9F9A9DF91CF91099471
:10090000EAA9FBA9FACFCF92DF92EF92FF920F9361
:100910001F93CF93DF93DC011796CC91C43039F04D
:10092000C83059F1C33019F0C63049F1C2E08C012A
:10093000085F1F4FF12CE12CC62ED12CD1E0F8011D
:100940006481C6010E2C02C0959587950A94E2F742
:1009500080FD6D270F5F1F4F80810E947A01BFEFDE
:10096000EB1AFB0AEC1658F3DF91CF911F910F9110
:10097000FF90EF90DF90CF900895C4E0D8CFC3E010
:10098000D6CFDC011796EC911797E93008F038C004
:10099000F0E0E353FB4F0C94F114D604DC04E204C2
:1009A000E804EE040005F4040005FA04ED91FC915E
:1009B0000684F785E02D0994ED91FC910088F1897A
:1009C000E02DF9CFED91FC910288F389E02DF3CF72
:1009D000ED91FC910488F589E02DEDCFED91FC912E
:1009E0000688F789E02DE7CFED91FC91008CF18D21
:1009F000E02DE1CFED91FC91028CF38DE02DDBCF6A
:100A000008954F925F926F927F928F929F92AF92D2
:100A1000BF92CF92DF92EF92FF920F931F93CF93EB
:100A2000DF93EC01CC88DD88EE88FF88888999897E
:100A3000AA89BB89C81AD90AEA0AFB0A688D798D86
:100A40008A8D9B8D9B01AC010E9415124B015C01AC
:100A500068A179A18AA19BA19B01AC010E9471139D
:100A60009B01AC01C501B4010E94DD130E944F142B
:100A7000C114D104E104F10409F0B6C0623071057B
:100A8000810591050CF0D0C01B821C821D821E8244
:100A9000188E198E1A8E1B8E1CAA1DAA1EAA1FAA9A
:100AA000C12CD12C7601C701B601DF91CF911F91E6
:100AB0000F91FF90EF90DF90CF90BF90AF909F90FD
:100AC0008F907F906F905F904F9008951016110651
:100AD00012061306B4F46C157D058E059F051CF4F3
:100AE0002A812111A1C09B01AC0188279927DC0133
:100AF000821B930BA40BB50B8CAB9DABAEABBFAB0A
:100B000093C0011511052105310509F48DC06C153F
:100B10007D058E059F050CF087C08A81882309F426
:100B200083C030952095109501951F4F2F4F3F4F53
:100B30000CAB1DAB2EAB3FAB77C0011511052105EA
:100B4000310509F471C08824992454018C189D083A
:100B5000AE08BF08681579058A059B050CF064C0CE
:100B60008A81811161C0DDCFCCACDDACEEACFFACD5
:100B7000A7019601C701B6010E9471132B013C0128
:100B8000C501B4010E94B61120E030E040E850E415
:100B90000E94151220E030E040E85FE30E947113EC
:100BA0009B01AC01C301B2010E94DD139B01AC01AA
:100BB000C701B6010E9470133B016C01FE01E05CAD
:100BC000FF4FE080F180028113819701A8010E940C
:100BD0008514181614F473018601C701D8018CAF6F
:100BE0009DAFAEAFBFAF3AC00CA91DA92EA93FA9BA
:100BF0001C141D041E041F040CF468CF10161106EB
:100C0000120613060CF099CF0027112798010C1932
:100C10001D092E093F0960177107820793070CF021
:100C200062CF2A8121115FCF8CA89DA8AEA8BFA852
:100C300081149104A104B10409F096CF88AD99AD57
:100C4000AAADBBAD8CAF9DAFAEAFBFAF81E01C1402
:100C50001D041E041F040CF080E08A833FEF831AFA
:100C6000930AA30AB30A8CAA9DAAAEAABFAA8CAC07
:100C70009DACAEACBFACC501B4010E9456146B0173
:100C80007C01CB82DC82ED82FE82A501940160E0D2
:100C900074E284E799E40E94DD13688F798F8A8F6C
:100CA0009B8F2A812111FFCE9058688F798F8A8F70
:100CB0009B8FF9CECF92DF92EF92FF920F931F930B
:100CC000CF93DF93EC016A017B0120E030E0A901C2
:100CD000CB01B6010E94AF1187FF04C0F7FAF09470
:100CE000F7F8F094A70196016C8D7D8D8E8D9F8D08
:100CF0000E94AF11882309F446C0CC8EDD8EEE8EA3
:100D0000FF8E8E01005C1F4FA701960160E074E228
:100D100084E799E40E94DD13F80160837183828384
:100D200093838CA99DA9AEA9BFA9181619061A0606
:100D30001B064CF5688D798D8A8D9B8D9B01AC01CE
:100D40000E9415126B017C0168A179A18AA19BA167
:100D50009B01AC010E9471139B01AC01C701B6015C
:100D60000E94DD130E944F146CAB7DAB8EAB9FAB2A
:100D7000CE01DF91CF911F910F91FF90EF90DF9007
:100D8000CF900C940105DF91CF911F910F91FF90AF
:100D9000EF90DF90CF900895CF92DF92EF92FF9285
:100DA000CF93DF93EC018B819C81AD81BE81892B38
:100DB0008A2B8B2B41F480E0DF91CF91FF90EF9055
:100DC000DF90CF9008953FB7F89480918B01909178
:100DD0008C01A0918D01B0918E0126B5A89B05C014
:100DE0002F3F19F00196A11DB11D3FBFBA2FA92FAA
:100DF000982F88276C017D01C20ED11CE11CF11CCB
:100E000042E0CC0CDD1CEE1CFF1C4A95D1F788A5F6
:100E100099A5AAA5BBA5B701A601481B590B6A0B4A
:100E20007B0B8B819C81AD81BE81481759076A0776
:100E30007B0708F4C0CF88899989AA89BB892A8150
:100E40002223A1F00196A11DB11D888B998BAA8B3D
:100E5000BB8B488959896A897B89CE010E94C1046C
:100E6000C8A6D9A6EAA6FBA681E0A6CF0197A1094C
:100E7000B109EBCF0F931F93CF93DF93EC010E9447
:100E8000CC06882319F0CE010E94010520E030E055
:100E9000A901688D798D8A8D9B8D0E94AF1181117A
:100EA00014C081E00C891D892E893F8948895989A0
:100EB0006A897B89041715072607370709F480E03C
:100EC000DF91CF911F910F91089581E0F9CF0F939A
:100ED0001F93FC0104891589268937890417150792
:100EE0002607370741F0448B558B668B778B1F9114
:100EF0000F910C9401051F910F9108954F925F92ED
:100F00006F927F928F929F92AF92BF92CF92DF9219
:100F1000EF92FF92CF93DF93EC01488C598C6A8C4F
:100F20007B8C20E030E0A901C301B2010E94AF1127
:100F3000882309F447C0A3019201C301B2010E94B2
:100F400015126B017C0168A179A18AA19BA19B016B
:100F5000AC010E9471139B01AC01C701B6010E9454
:100F6000DD130E944F146B017C0188889988AA8840
:100F7000BB8820E030E0A901C301B2010E948514C2
:100F8000B701A6011816CCF44F5F5F4F6F4F7F4F2C
:100F9000480D591D6A1D7B1DCE01DF91CF91FF9039
:100FA000EF90DF90CF90BF90AF909F908F907F9009
:100FB0006F905F904F900C946707409550956095A7
:100FC0007095E6CFDF91CF91FF90EF90DF90CF90BB
:100FD000BF90AF909F908F907F906F905F904F9059
:100FE00008950895CF93DF93FC0101900020E9F765
:100FF0003197AF01481B590BBC0184E991E00E9475
:10100000A801EC0142E050E068E371E084E991E07E
:101010000E94A8018C0F9D1FDF91CF910895FC01C4
:1010200080819181009711F00C94931508950C9490
:101030009315FC0180819181009711F00C943A1076
:1010400060E070E0CB010895AF92BF92CF92DF9243
:10105000EF92FF920F931F93CF93DF93FC012481B4
:101060003581FB0144815581E901C41BD50B411534
:10107000510541F12115310529F12417350710F1EA
:10108000C217D30710F0E90121975B01FC01C08072
:10109000D180C6010FEF1FEF7601EC0EFD1EE816A2
:1010A000F90690F0F501608171810E9400170097A8
:1010B00059F09C012C193D09C217D30708F089018A
:1010C0000196EDCF0FEF1FEFC801DF91CF911F9178
:1010D0000F91FF90EF90DF90CF90BF90AF90089569
:1010E000CF93DF93DC0114962D913C911597232B20
:1010F00079F0FB01CD91DC9160817181CE010E947C
:101100000017009729F08C1B9D0BDF91CF9108955C
:101110008FEF9FEFFACF0F931F93CF93DF93EC01E5
:1011200088819981009759F02A813B8126173707DA
:1011300030F081E0DF91CF911F910F9108958B01E5
:101140006F5F7F4F0E941C16009759F09983888328
:101150001B830A832C813D81232B59F7FC011082CC
:10116000E8CF80E0E7CFEF92FF920F931F93CF93EA
:10117000DF93EC017B018A01BA010E948B08288170
:101180003981811114C02115310519F0C9010E945E
:101190009315198218821D821C821B821A82CE012D
:1011A000DF91CF911F910F91FF90EF9008951D83D4
:1011B0000C83B701C9010E94EB16F1CFFC0111822B
:1011C00010821382128215821482FB01019000208A
:1011D000E9F73197AF01461B570B0C94B308AF9258
:1011E000BF92CF92DF92EF92FF920F931F93CF9314
:1011F000DF93EC016B015A0179012417350720F4C4
:101200008B2D5901E42EF82E6AE371E0CE010E9485
:10121000DE08D60114960D911C91A016B10628F592
:10122000E016F10608F48701D601ED91FC911197C3
:10123000E00FF11FF08010826D917C916A0D7B1D93
:1012400061157105F1F0FB0101900020E9F731977C
:10125000AF01461B570BCE010E94B308F6018081F7
:101260009181080F191FD801FC92CE01DF91CF9117
:101270001F910F91FF90EF90DF90CF90BF90AF90B4
:10128000089588819981009711F00E949315198221
:1012900018821D821C821B821A82E0CF4F925F92BD
:1012A0006F927F928F929F92AF92BF92CF92DF9276
:1012B000EF92FF92CF93DF93EC016A017B0120E074
:1012C00030E0A901CB01B6010E94AF1187FF04C035
:1012D000F7FAF094F7F8F09488A099A0AAA0BBA020
:1012E000A7019601C501B4010E94AF11882309F43A
:1012F0004DC06CA97DA98EA99FA90E94B6112B0192
:101300003C01A7019601C501B4010E94DD139B01B8
:10131000AC01C301B2010E9415120E944F146CABC4
:101320007DAB8EAB9FABA701960160E070E080E0E3
:1013300090E40E94DD130E94901426E53EE04DE209
:101340005FE30E94151220E034E244E759E40E9472
:10135000151268AF79AF8AAF9BAFC8A2D9A2EAA233
:10136000FBA2E881F9810084F185E02DCE01DF91B7
:10137000CF91FF90EF90DF90CF90BF90AF909F9074
:101380008F907F906F905F904F900994DF91CF91F5
:10139000FF90EF90DF90CF90BF90AF909F908F9095
:1013A0007F906F905F904F9008951F920F920FB6AD
:1013B0000F9211242F933F938F939F93AF93BF93DB
:1013C0008091900190919101A0919201B09193012F
:1013D00030918F0123E0230F2D3758F50196A11D81
:1013E000B11D20938F018093900190939101A09360
:1013F0009201B093930180918B0190918C01A09107
:101400008D01B0918E010196A11DB11D80938B01BC
:1014100090938C01A0938D01B0938E01BF91AF91F9
:101420009F918F913F912F910F900FBE0F901F9022
:10143000189526E8230F0296A11DB11DD2CF1F9249
:101440000F920FB60F9211242F933F934F935F93F8
:101450006F937F938F939F93AF93BF93EF93FF937C
:1014600084E991E00E946602FF91EF91BF91AF91F4
:101470009F918F917F916F915F914F913F912F91AC
:101480000F900FBE0F901F9018951F920F920FB6DE
:101490000F9211242F938F939F93EF93FF93E091DB
:1014A000A401F091A5018081E091AA01F091AB0126
:1014B00082FD1BC090818091AD018F5F8F73209161
:1014C000AE01821741F0E091AD01F0E0EC56FE4F25
:1014D000958F8093AD01FF91EF919F918F912F9107
:1014E0000F900FBE0F901F9018958081F4CF1F9220
:1014F0000F920FB60F9211242F933F934F935F9348
:101500006F937F938F939F93AF93BF93CF93DF930B
:10151000EF93FF9380918601C0915502D0E087FF41
:1015200024C01092850010928400809186018F5F04
:101530008093860180918601082E000C990B8C17F0
:101540009D0724F4809186018C30C4F18091840041
:1015500090918500049680349C4908F47AC080916B
:10156000840090918500049676C080918601082EB3
:10157000000C990B8C179D07C4F6E09186018E2F05
:10158000EE0F990BFC01EE0FFF1FE80FF91FEF5C48
:10159000FD4F808186FFC9CFE09186018E2FEE0F2F
:1015A000990BFC01EE0FFF1FE80FF91FEF5CFD4FD9
:1015B000808160E08F730E947A01B7CF2091840010
:1015C00030918500E09186018E2FEE0F990BFC0182
:1015D000EE0FFF1FE80FF91FEF5CFD4F8181928135
:1015E000820F931F9093890080938800E091860179
:1015F0008E2FEE0F990BFC01EE0FFF1FE80FF91F66
:10160000EF5CFD4F808186FF11C0E09186018E2F37
:10161000EE0F990BFC01EE0FFF1FE80FF91FEF5CB7
:10162000FD4F808161E08F730E947A01FF91EF91FD
:10163000DF91CF91BF91AF919F918F917F916F91EA
:101640005F914F913F912F910F900FBE0F901F9080
:10165000189580E49CE990938900809388008FEF2F
:1016600080938601E3CFCF93DF93EC018AE091E092
:101670009983888381E08F83188A198A1A8A1B8A42
:101680001C8A1D8A1E8A1F8A188E198E1A8E1B8E1E
:101690001C8E1D8E1E8E1F8E18A219A21AA21BA2AE
:1016A00080E090E0A0E8BFE38CA39DA3AEA3BFA31E
:1016B0001B821C821D821E8221E030E03DA72CA7E8
:1016C0002FEF2FA718A619A61AA61BA66887498769
:1016D00024E02A8725E02B871EA61CAA1DAA1EAA85
:1016E0001FAA18AE19AE1AAE1BAE1CAE1DAE1EAEB2
:1016F0001FAEFE01E05CFF4F80839183A283B38322
:101700001A821C861D861E861F86CE010E94F50247
:1017100040E050E060E87FE3CE010E944E0940E0E7
:1017200050E060E87FE3CE01DF91CF910C945A0640
:10173000109297011092960188EE93E0A0E0B0E03D
:101740008093980190939901A0939A01B0939B0183
:101750008AE291E0909395018093940185EC90E06A
:101760009093A1018093A00184EC90E09093A30159
:101770008093A20180EC90E09093A5018093A40156
:1017800081EC90E09093A7018093A60182EC90E019
:101790009093A9018093A80186EC90E09093AB010F
:1017A0008093AA011092AD011092AE011092AF0188
:1017B0001092B00142E063E081EE92E00E94330BB0
:1017C00044E065E08DE992E00E94330B46E067E07B
:1017D00089E592E00E94330B809155028C3098F499
:1017E00091E0980F909355028093560290E0FC018F
:1017F000EE0FFF1FE80FF91FEF5CFD4F88EB9BE03A
:101800009283818308958FEF809356020895CF933A
:10181000DF93CDB7DEB7A2970FB6F894DEBF0FBE49
:10182000CDBF789484B5826084BD84B5816084BD69
:1018300085B5826085BD85B5816085BD80916E006E
:10184000816080936E00109281008091810082609F
:1018500080938100809181008160809381008091DC
:1018600080008160809380008091B10084608093CB
:10187000B1008091B00081608093B00080917A00C7
:10188000846080937A0080917A00826080937A00ED
:1018900080917A00816080937A0080917A008068DC
:1018A00080937A001092C100E091A401F091A5010B
:1018B00082E08083E091A001F091A1011082E0918B
:1018C000A201F091A30180E180831092AC01E0912C
:1018D000A801F091A90186E08083E091A601F09132
:1018E000A701808180618083E091A601F091A7012A
:1018F000808188608083E091A601F091A7018081BA
:1019000080688083E091A601F091A70180818F7D9E
:101910008083809156028C3008F050C089E00E948C
:10192000AA0080915602282F30E0F901EE0FFF1F28
:10193000E20FF31FEF5CFD4F9081907C99609083E4
:1019400010925702109258022CE0622F0E94E51468
:10195000829FB001112430E020E0AB01420F531F01
:10196000FA01EE0FFF1FE40FF51FEF5CFD4F9081B2
:1019700096FD16C02F5F3F4F2C30310571F7811156
:101980000FC01092800082E0809381001092850049
:1019900010928400B19A80916F00826080936F00F2
:1019A000E09156028E2F90E0FC01EE0FFF1FE80F32
:1019B000F91FEF5CFD4F80818064808340E050E040
:1019C00068E473E481EE92E00E945A0640E050E041
:1019D00068EC72E481EE92E00E944E0940E050E033
:1019E00068E473E48DE992E00E945A0640E050E01A
:1019F00068EC72E48DE992E00E944E0940E050E00C
:101A000068E473E489E592E00E945A0640E050E001
:101A100068EC72E489E592E00E944E09B8E52B2E4D
:101A2000B2E03B2E11E084E991E00E944602892B4E
:101A300009F444C16AE371E0CE0149960E94DE08D0
:101A40000E94F80197FD1FC08A309105E1F089835B
:101A50001A82ED8CFE8C4FEFE41AF40AB701CE0126
:101A600049960E948B08882359F3298D3A8D8D8DD4
:101A70009E8DBE016F5F7F4F820F931F0E94EB16FA
:101A8000FE8EED8EDDCF1C8A1B8A1E8A1D8A188E63
:101A90001F8A698D7A8D6115710531F04D8D5E8DCE
:101AA000CE0143960E94B3088F89988D892B09F443
:101AB00012C16BE371E08B899C890E94E216892B2D
:101AC00009F009C120E030E048E453EC6091F902EC
:101AD0007091FA028091FB029091FC020E94AF117A
:101AE000882321F081EE92E00E94C90020E030E0DE
:101AF00048E453EC6091B5027091B6028091B70250
:101B00009091B8020E94AF11882321F08DE992E0F4
:101B10000E94C90020E030E048E453EC609171027B
:101B20007091720280917302909174020E94AF11C1
:101B3000882321F089E592E00E94C9008091890103
:101B4000882341F080918801882321F080918701CA
:101B5000811140C081EE92E00E94CC068DE992E0B6
:101B60000E94CC0689E592E00E94CC0688E00E94A3
:101B70005101019741F51092F1021092F202109278
:101B8000F3021092F4021092F5021092F6021092F3
:101B9000F7021092F8021092150310921603109299
:101BA0001703109218031092E4021092E5021092AB
:101BB000E6021092E7021092F9021092FA021092D5
:101BC000FB021092FC0281EE92E00E947E071093CD
:101BD0008901B4CF8AE00E945101019771F51092FA
:101BE000AD021092AE021092AF021092B0021092AB
:101BF000B1021092B2021092B3021092B40210928B
:101C0000D1021092D2021092D3021092D4021092FA
:101C1000A0021092A1021092A2021092A3021092AE
:101C2000B5021092B6021092B7021092B8028DE976
:101C300092E00E947E07109388018BE00E94510180
:101C4000019771F51092690210926A0210926B026C
:101C500010926C0210926D0210926E0210926F023E
:101C60001092700210928D0210928E0210928F02CA
:101C70001092900210925C0210925D0210925E022D
:101C800010925F021092710210927202109273020F
:101C90001092740289E592E00E947E0710938701FA
:101CA00010938A0186E491E00E94F207CE014396E8
:101CB0000E940F08CE0149960E940F0880E090E034
:101CC000892B09F4B0CE0E945202882309F4A6CED3
:101CD0000E940000A3CE66E571E0CE0101960E944D
:101CE000DE084D815E818F89988D8417950770F08D
:101CF0008B899C89009751F069817A816115710502
:101D000029F00E94F21601E0892B09F000E0CE01D3
:101D100001960E940F08002349F26DE571E0CE01A3
:101D200001960E94DE08BE016F5F7F4FCE01439691
:101D30000E9470089C0145E050E0BE016D5E7F4F3F
:101D4000CE0107960E94EF08CE0107960E9419085F
:101D50002B013C01CE0107960E940F08CE0101968F
:101D60000E940F086DE571E0CE0107960E94DE0823
:101D7000BE01695F7F4FCE0143960E9424087C011B
:101D80006DE571E0CE0101960E94DE08BE016F5F35
:101D90007F4FCE0143960E947008AC014F5F5F4FAA
:101DA0009701BE016D5E7F4FCE010D960E94EF0838
:101DB000CE010D960E9419084B015C01CE010D96D3
:101DC0000E940F08CE0101960E940F08CE010796CF
:101DD0000E940F086DE571E0CE0107960E94DE08B3
:101DE000BE01695F7F4FCE0143960E9424087C01AB
:101DF0006DE571E0CE0101960E94DE08BE016F5FC5
:101E00007F4FCE0143960E947008AC014F5F5F4F39
:101E10009701BE016D5E7F4FCE010D960E94EF08C7
:101E2000CE010D960E9419086F8F78A389A39AA3FB
:101E3000CE010D960E940F08CE0101960E940F0858
:101E4000CE0107960E940F086DE571E0CE01019664
:101E50000E94DE08BE016F5F7F4FCE0143960E9455
:101E600024082F89388DAC014F5F5F4FBE016D5E36
:101E70007F4FCE0107960E94EF08CE0107960E9481
:101E800019086B017C01CE0107960E940F08CE0154
:101E900001960E940F0880918A01811103C08FE58D
:101EA00091E002CFC301B2010E944F14AB01BC010B
:101EB00081EE92E00E946707C501B4010E944F14B1
:101EC000AB01BC018DE992E00E9467076F8D78A19C
:101ED00089A19AA10E944F14AB01BC0189E592E04F
:101EE0000E946707C701B6010E944F149B01603230
:101EF00052E07507DCF520915702E8E8CE2ED12C90
:101F0000C21AD10827FDD394CC0CDD1CCC0CDD1CEF
:101F10000D2C000CEE08FF0820915802A101421B75
:101F2000510927FD53959A01220F331F220F331FAA
:101F3000032E000C440B550B2C193D094E095F096B
:101F4000DB01653B710514F0A4EBB0E0B7FF02C004
:101F5000B0E0A0E00E94001324EB30E040E050E04D
:101F60000E94D6122C0D3D1D4E1D5F1DE0915602A4
:101F7000EC3088F58091570248E850E0481B510941
:101F800087FD5395CA01880F991F880F991F28173D
:101F9000390784F080915802A101481B510987FD3F
:101FA0005395CA01880F991F880F991F2817390761
:101FB0000CF4C9010297880F991F4FB7F8942E2F80
:101FC00030E0F901EE0FFF1FE20FF31FEF5CFD4F52
:101FD000928381834FBF4091F5025091F602609148
:101FE000F7027091F8028091F1029091F202A091B3
:101FF000F302B091F402481759076A077B0751F5BD
:102000004091B1025091B2026091B3027091B4025A
:102010008091AD029091AE02A091AF02B091B0025A
:10202000481759076A077B07A9F440916D02509140
:102030006E0260916F0270917002809169029091BE
:102040006A02A0916B02B0916C02481759076A07A7
:102050007B0769F081EE92E00E943A078DE992E0F9
:102060000E943A0789E592E00E943A07B4CF83E7DD
:1020700091E01ACE662777270C943E10B0E0A0E0DE
:10208000E4E4F0E10C940E135C017B016115710531
:1020900019F0DB018D939C9385010F5F1F4FF501B4
:1020A000D0818D2F90E00E948E116C01892BB9F5A3
:1020B000DD32B9F50F5F1F4FD5011196DC91C1E0FC
:1020C0005801F1E0AF1AB10843E050E060E770E07A
:1020D000C5010E949711892B69F5680182E0C80E3D
:1020E000D11C45E050E06BE670E0C6010E949711FC
:1020F000892B21F4680197E0C90ED11CE114F10489
:1021000019F0D701CD92DC9260E070E080E89FEF9B
:10211000C111FFC060E070E080E89FE7FAC058019D
:10212000BBCFDB3229F485010E5F1F4FF501D18152
:10213000C0E0C6CF43E050E068E670E0C5010E9411
:102140009711892BE9F0F80110E000E020E030E081
:10215000A9015F01B0ED8B2E8D0E89E08815C8F1C5
:102160009C2E689491F88C2F8870C2FF16C0811144
:1021700002C00F5F1F4F3196D501DC91C92DE9CF09
:10218000E114F10429F00E5F1F4FF7011183008362
:1021900060E070E080EC9FE7BCC0882311F0015044
:1021A0001109A5E0B0E00E94F5129B01AC01220FDD
:1021B000331F441F551F280D311D411D511D283946
:1021C00099E93907490799E15907A8F2C6609C2E99
:1021D000D2CFAEEF8A1206C0C3FD3CC09C2E6894DD
:1021E00093F8C9CFDF7DD534A9F580818D3239F4DC
:1021F000C061DF011296818162E070E006C0DF01FC
:102200008B32C1F3119661E070E080535D01A61A34
:10221000B70A8A30F8F4E0E8CE16ECE0DE065CF4AB
:10222000B601660F771F660F771FC60ED71ECC0C40
:10223000DD1CC80ED11C5D01FFEFAF1ABF0A8C91E7
:1022400080538A30A8F1C4FF03C0D194C194D1084F
:102250000C0D1D1DC1FF09C0E114F10431F081E036
:10226000A81AB108D701AD92BC92CA01B9010E9467
:10227000B411C370C33009F490584B015C0120E0E5
:1022800030E0A9010E94AF11882309F440C0CFE9D2
:10229000D0E017FF05C0119501951109C7E8D0E0FE
:1022A0006E01B8E1CB1AD10880E2E82EF12C0FC004
:1022B000D501B1CFFE0125913591459154910E196B
:1022C0001F09C501B4010E9415124B015C01D50123
:1022D000C4010E151F0574F72497F594E794CC16E6
:1022E000DD06A9F78A2F880F8B2F881F8F3F49F0B3
:1022F00020E030E0A901C501B4010E94AF118111B5
:1023000006C082E290E09093260380932503C501E6
:10231000B401CDB7DEB7ECE00C942A1391110C9404
:102320008212803219F089508550C8F70895FB0158
:10233000DC014150504088F08D9181341CF08B3588
:102340000CF4805E659161341CF06B350CF4605EBA
:10235000861B611171F3990B0895881BFCCF0E94B5
:10236000F11108F481E00895E89409C097FB3EF468
:1023700090958095709561957F4F8F4F9F4F9923D2
:10238000A9F0F92F96E9BB279395F6958795779550
:102390006795B795F111F8CFFAF4BB0F11F460FF10
:1023A0001BC06F5F7F4F8F4F9F4F16C0882311F068
:1023B00096E911C0772321F09EE8872F762F05C07C
:1023C000662371F096E8862F70E060E02AF09A9517
:1023D000660F771F881FDAF7880F9695879597F90C
:1023E0000895990F0008550FAA0BE0E8FEEF1616A6
:1023F0001706E807F907C0F012161306E407F507F9
:1024000098F0621B730B840B950B39F40A2661F06C
:10241000232B242B252B21F408950A2609F4A1400F
:10242000A6958FEF811D811D08950E9428120C949E
:102430009C120E948E1238F00E94951220F0952373
:1024400011F00C9485120C948B1211240C94D01260
:102450000E94AD1270F3959FC1F3950F50E0551F88
:10246000629FF001729FBB27F00DB11D639FAA27E9
:10247000F00DB11DAA1F649F6627B00DA11D661F38
:10248000829F2227B00DA11D621F739FB00DA11D59
:10249000621F839FA00D611D221F749F3327A00D13
:1024A000611D231F849F600D211D822F762F6A2FAF
:1024B00011249F5750409AF0F1F088234AF0EE0F14
:1024C000FF1FBB1F661F771F881F91505040A9F741
:1024D0009E3F510580F00C9485120C94D0125F3F02
:1024E000E4F3983ED4F3869577956795B795F7957D
:1024F000E7959F5FC1F7FE2B880F911D96958795F5
:1025000097F9089599278827089597F99F6780E894
:1025100070E060E008959FEF80EC089500240A9435
:102520001616170618060906089500240A941216AE
:102530001306140605060895092E0394000C11F4E1
:10254000882352F0BB0F40F4BF2B11F460FF04C08E
:102550006F5F7F4F8F4F9F4F089557FD9058440FE7
:10256000551F59F05F3F71F04795880F97FB991FF2
:1025700061F09F3F79F087950895121613061406AF
:10258000551FF2CF4695F1DF08C01616170618063C
:10259000991FF1CF86957105610508940895E89417
:1025A000BB2766277727CB0197F90895052E97FB60
:1025B0001EF400940E94ED1257FD07D00E943F13B5
:1025C00007FC03D04EF40C94ED12509540953095D5
:1025D00021953F4F4F4F5F4F08959095809570958F
:1025E00061957F4F8F4F9F4F08950E946113A59F64
:1025F000900DB49F900DA49F800D911D11240895FE
:10260000B7FF0C94F5120E94F512821B930B0895EC
:102610002F923F924F925F926F927F928F929F92F2
:10262000AF92BF92CF92DF92EF92FF920F931F93E0
:10263000CF93DF93CDB7DEB7CA1BDB0B0FB6F89491
:10264000DEBF0FBECDBF09942A88398848885F84D1
:102650006E847D848C849B84AA84B984C884DF8042
:10266000EE80FD800C811B81AA81B981CE0FD11D26
:102670000FB6F894DEBF0FBECDBFED010895A1E205
:102680001A2EAA1BBB1BFD010DC0AA1FBB1FEE1FEC
:10269000FF1FA217B307E407F50720F0A21BB30B37
:1026A000E40BF50B661F771F881F991F1A9469F7B3
:1026B00060957095809590959B01AC01BD01CF010F
:1026C0000895A29FB001B39FC001A39F700D811D0B
:1026D0001124911DB29F700D811D1124911D08952B
:1026E0005058BB27AA270E9488130C949C120E9462
:1026F0008E1238F00E94951220F039F49F3F19F4A1
:1027000026F40C948B120EF4E095E7FB0C948512E2
:10271000E92F0E94AD1258F3BA17620773078407B6
:10272000950720F079F4A6F50C94CF120EF4E095FD
:102730000B2EBA2FA02D0B01B90190010C01CA017B
:10274000A0011124FF27591B99F0593F50F4503E26
:1027500068F11A16F040A22F232F342F4427585F18
:10276000F3CF469537952795A795F0405395C9F730
:102770007EF41F16BA0B620B730B840BBAF09150E8
:10278000A1F0FF0FBB1F661F771F881FC2F70EC087
:10279000BA0F621F731F841F48F48795779567955A
:1027A000B795F7959E3F08F0B0CF9395880F08F046
:1027B0009927EE0F9795879508950E94F1130C9431
:1027C0009C120E94951258F00E948E1240F029F43B
:1027D0005F3F29F00C94851251110C94D0120C9487
:1027E0008B120E94AD1268F39923B1F3552391F334
:1027F000951B550BBB27AA2762177307840738F070
:102800009F5F5F4F220F331F441FAA1FA9F335D0CC
:102810000E2E3AF0E0E832D091505040E695001C80
:10282000CAF72BD0FE2F29D0660F771F881FBB1F3A
:10283000261737074807AB07B0E809F0BB0B802D18
:10284000BF01FF2793585F4F3AF09E3F510578F044
:102850000C9485120C94D0125F3FE4F3983ED4F3AD
:10286000869577956795B795F7959F5FC9F7880F18
:10287000911D9695879597F90895E1E0660F771F6A
:10288000881FBB1F621773078407BA0720F0621BFB
:10289000730B840BBA0BEE1F88F7E09508950E9426
:1028A00056146894B1110C94D01208950E94B51278
:1028B00088F09F5798F0B92F9927B751B0F0E1F001
:1028C000660F771F881F991F1AF0BA95C9F714C0B1
:1028D000B13091F00E94CF12B1E008950C94CF1264
:1028E000672F782F8827B85F39F0B93FCCF38695EA
:1028F00077956795B395D9F73EF490958095709547
:1029000061957F4F8F4F9F4F08950E94F11108F4FA
:102910008FEF089519F416F40C948B120C94D014C4
:102920000E94B512B8F39923C9F3B6F39F57550B1C
:1029300087FF0E94DE140024A0E640EA9001805840
:102940005695979528F4805C660F771F881F20F0B6
:1029500026173707480730F4621B730B840B2029B6
:1029600031294A2BA69517940794202531254A270B
:1029700058F7660F771F881F20F02617370748077C
:1029800030F4620B730B840B200D311D411DA0959B
:1029900081F7B901842F9158880F969587950895EE
:1029A0009F3F31F0915020F4879577956795B795C3
:1029B000880F911D9695879597F9089591505040ED
:1029C000660F771F881FD2F70895991B79E004C01E
:1029D000991F961708F0961B881F7A95C9F780955E
:1029E0000895EE0FFF1F0590F491E02D09940F93C9
:1029F0001F93CF93DF938230910510F482E090E033
:102A0000E0912903F0912A0330E020E0B0E0A0E05B
:102A1000309799F42115310509F44AC0281B390B68
:102A200024303105D8F58A819B816115710589F1C2
:102A3000FB0193838283FE0111C040815181028199
:102A4000138148175907E0F04817590799F4109770
:102A500061F012960C93129713961C933296CF0145
:102A6000DF91CF911F910F91089500932903109347
:102A70002A03F4CF2115310551F04217530738F0DE
:102A8000A901DB019A01BD01DF01F801C1CFEF010E
:102A9000F9CF90932A0380932903CDCFFE01E20F53
:102AA000F31F819391932250310939832883D7CF23
:102AB0002091270330912803232B41F42091020118
:102AC00030910301309328032093270320910001C4
:102AD000309101012115310541F42DB73EB74091E8
:102AE000040150910501241B350BE0912703F0915F
:102AF0002803E217F307A0F42E1B3F0B2817390712
:102B000078F0AC014E5F5F4F2417350748F04E0F49
:102B10005F1F5093280340932703819391939FCF86
:102B2000F0E0E0E09CCFCF93DF930097E9F0FC0169
:102B3000329713821282A0912903B0912A03ED01EA
:102B400030E020E01097A1F420813181820F931FA3
:102B500020912703309128032817390709F061C015
:102B6000F0932803E0932703DF91CF910895EA01C2
:102B7000CE17DF07E8F54A815B819E0141155105BB
:102B8000B1F7E901FB83EA8349915991C40FD51F3D
:102B9000EC17FD0761F4808191810296840F951FE7
:102BA000E90199838883828193819B838A83F0E002
:102BB000E0E012968D919C9113970097B9F52D91B5
:102BC0003C911197CD010296820F931F209127030C
:102BD000309128032817390739F6309751F51092AC
:102BE0002A0310922903B0932803A0932703BCCF94
:102BF000D383C28340815181840F951FC817D907A1
:102C000061F44E5F5F4F88819981480F591F51834E
:102C100040838A819B81938382832115310509F04A
:102C2000B0CFF0932A03E09329039ECFFD01DC018E
:102C3000C0CF13821282D7CFB0E0A0E0E2E2F6E18B
:102C40000C940A138C01009751F4CB010E94F714E5
:102C50008C01C801CDB7DEB7E0E10C942613FC016E
:102C6000E60FF71F9C0122503109E217F30708F421
:102C70009DC0D901CD91DC911197C617D70798F067
:102C8000C530D10530F3CE0104978617970708F3B6
:102C9000C61BD70B2297C193D1936D937C93CF0121
:102CA0000E949315D6CF5B01AC1ABD0A4C018C0E65
:102CB0009D1EA0912903B0912A03512C412CF12C87
:102CC000E12C109731F58091270390912803881506
:102CD000990509F05CC04616570608F058C0809167
:102CE000000190910101009741F48DB79EB740918A
:102CF000040150910501841B950BE817F90708F0B2
:102D000055C0F0932803E0932703F9017183608392
:102D1000A0CF8D919C91119712966C90129713965B
:102D20007C901397A815B90559F56C0142E0C40EC3
:102D3000D11CCA14DB0420F1AC014A195B09DA0189
:102D40001296159780F06282738251834083D90175
:102D50006D937C93E114F10471F0D7011396FC9309
:102D6000EE93129776CF22968C0F9D1FF9019183D7
:102D70008083F301EFCFF0932A03E093290369CF17
:102D80004816590608F42C017D01D3019ACFCB01D6
:102D90000E94F7147C01009749F0AE01B8010E942F
:102DA000D916C8010E949315870153CF10E000E0A7
:102DB00050CFFB01DC0102C001900D924150504008
:102DC000D8F70895FB01DC018D9101908019011065
:102DD000D9F3990B0895FB01DC0101900D920020BD
:102DE000E1F70895FB01DC014150504030F08D9136
:102DF0000190801919F40020B9F7881B990B0895E8
:102E0000FB0151915523A9F0BF01DC014D914517FC
:102E10004111E1F759F4CD010190002049F04D91A5
:102E200040154111C9F3FB014111EFCF81E090E062
:082E300001970895F894FFCF0B
:102E380000002B038000000000002303F502F107C7
:102E4800170801058304C1046D043B041A04E60352
:102E5800C5036F034003000000008802A801D501E4
:102E6800D5024602E40138020D0A00686F6D655FFD
:102E7800726F626F7400486F6D696E6720636F6D63
:102E8800706C657465004D4F5645544F002C0052C8
:102E98006F626F74206E6F7420686F6D656420793F
:102EA8006574004D6F76656D656E7420636F6D7027
:062EB8006C65746500006A
:00000001FF
